:1000000084C0FFC19DC09CC09BC09AC099C009C854
:1000100097C096C095C0F1C493C092C091C090C0E3
:100020008FC08EC08DC08CC08BC08AC089C088C074
:1000300087C086C016C1FFC000C101C102C103C193
:1000400004C105C106C107C10AC109C108C107C170
:1000500006C105C104C103C102C101C100C1FFC085
:10006000FEC0FDC0FCC0FBC0FAC0F9C0F8C0F7C0BC
:10007000F6C0F5C0F4C0F3C0F2C0F1C0F0C0EFC0EC
:10008000EEC0EDC0ECC0EBC0EAC0E9C0E8C0E7C01C
:10009000E6C0E5C0E4C0E3C0E2C0E1C0E0C0DFC04C
:1000A000DEC0DDC0DCC0DBC0DAC0D9C0D8C0D7C07C
:1000B000D6C0D5C0D4C0D3C0D2C0D1C0D0C0CFC0AC
:1000C000CEC0CDC0CCC0CBC0CAC0C9C0C8C0C7C0DC
:1000D000C6C0C5C0C4C0C3C0C2C0C1C0C0C0BFC00C
:1000E000BEC0BDC0BCC0BBC0BAC0B9C0B8C0B7C03C
:1000F000B6C0B5C0B4C0B3C0B2C0AFC0D7C7D8C710
:10010000D9C7DAC7DBC7DCC7DDC711241FBECFEFF5
:10011000D4E0DEBFCDBF11E0A0E0B1E0E4E4F2E165
:1001200002C005900D92AC31B107D9F721E0ACE1E6
:10013000B1E001C01D92A534B207E1F7DBD780C85A
:100140005FCF87B18F7C87B988B1806388B9ECEBCA
:10015000F0E010821092B9001092B8001092BB002B
:1001600084E08083089594EA9093BC00ECEBF0E087
:1001700090819923ECF79091B900987F983029F0FD
:100180009091B900987F9031E1F48093BB0084E8AE
:100190008093BC00ECEBF0E080818823ECF7809149
:1001A000B900887F883181F02091B900287F81E0F3
:1001B00090E0203411F480E090E0919581959109D0
:1001C00008958FEF9FEF089580E090E0089584E90F
:1001D0008093BC0008958093BB0084E88093BC00AA
:1001E000ECEBF0E080818823ECF79091B900987FE8
:1001F00021E030E0983211F420E030E088279927A0
:10020000821B930B0895811102C084E801C084EC25
:100210008093BC00ECEBF0E080818823ECF78091C8
:10022000BB0090E0089590E084369105C0F4FC0195
:10023000E65EFF4F099487E708958AE2089586E213
:10024000089584E7089584EA089580EA089585E38F
:10025000089580E2089584E208958FEF08958FEE67
:10026000089581E208959DEC899F912D1124969522
:100270009695969520E1929FA0011124990F292F20
:10028000220F220F920F891B842B0895982F92958D
:100290009F70990F292F220F220F920F8F70890FB5
:1002A000089582EA60DF80E096DF80E294DF8FDFEE
:1002B00082EA59DF81E08FDF81E18DDF88DF82EA2A
:1002C00052DF8DE088DF83E886DF81DF82EA4BDF63
:1002D0008EE081DF82E87FDF7ADF82EA44DF8FE031
:1002E0007ADF81E078DF73DF82EA3DDF80E073DF71
:1002F00080E171DF6CDF0895EF92FF920F931F93FF
:10030000CF93DF93EC018B017A0182EA2CDF82E04C
:1003100062DF5DDF83EA27DF81E075DF8F77B6DF9D
:10032000F701808381E06FDF8F77B0DFF801808392
:1003300080E069DF8F73AADF888349DFDF91CF9187
:100340001F910F91FF90EF900895EF92FF920F93FE
:100350001F93CF93DF93EC018B017A0182EA03DFD5
:1003600085E039DF34DF83EAFEDE81E04CDF8F7326
:100370008DDFF701808381E046DF81E044DF8F710C
:1003800085DFF801808380E03EDF80DF88831FDF28
:10039000DF91CF911F910F91FF90EF9008951F93E0
:1003A000CF93DF93D82F162FC42F843608F0D0E0D8
:1003B0001D3008F011E0C03208F0C1E082EAD3DE5F
:1003C00085E009DF8C2F4FDF06DF80E004DF812F1F
:1003D0004ADF01DF8D2F47DFFEDEF9DEDF91CF91AF
:1003E0001F910895CF9382EABEDE8DE0F4DEEFDE4A
:1003F00083EAB9DE80E007DFC82FE9DE8C2FCF91DA
:1004000008951F920F920FB60F9211248F939F930E
:1004100081E080934401809337011092360110925D
:100420003501809334011092330110923201809192
:100430000901873121F0809109018B3071F480919D
:1004400008018B3351F4809107018B3331F484E63A
:1004500090E090932C0180932B019F918F910F90AE
:100460000FBE0F901F90189547E051E068E071E0D3
:1004700089E091E041DF9091090181E09C3008F032
:1004800080E080930301089582E484BD81E085BD0E
:100490008CE787BD089514BC15BC5E9808951F9322
:1004A000CF93DF93D82F162FC42F883108F0D0E0D8
:1004B0001C3308F010E0CC3308F0C0E082EA53DED1
:1004C00082E089DE8C2FCFDE86DE812FCCDE83DEDC
:1004D0008D2FC9DE80DE7BDE82EA45DE82E07BDEB8
:1004E00076DE83EA40DE80E08EDEC82F70DECC1F31
:1004F000CC27CC1FC0932601DF91CF911F91089587
:100500001F93CF93DF9386B1D1E0982F947082FD33
:10051000D0E086B111E0C82FC87083FD10E0809153
:100520003A0181117DC0911135C0C11133C0809154
:100530002501882309F458C280912401882351F1B0
:1005400080913801909139010196909339018093FF
:100550003801803D974008F43EC281E080933A0123
:100560001092390110923801809331018093230158
:100570008093220147E051E068E071E089E091E07A
:10058000BBDE9091090181E09C3008F080E080930F
:10059000030121C21092390110923801992301F10F
:1005A000809125018130E1F4CC2309F414C29091AB
:1005B000020189278093020180910201811106C006
:1005C00080ED97E090932E0180932D0181E28A9532
:1005D000F1F7000080912401813009F0FCC10BC0CB
:1005E000CC2309F4F8C180912401813009F0F3C1D2
:1005F000992309F4F0C185E080933A0180ED97E0FA
:1006000090932A018093290144E051E065E071E074
:1006100086E091E09ADE21E22A95F1F70000DBC145
:1006200080913A01853009F050C0C11128C08091F5
:100630002401882321F181E0809328018091200109
:100640009091210101969093210180932001803D9A
:10065000974008F4C0C186E080933A0110922101CE
:100660001092200181E0809331018093230144E0C6
:1006700051E065E071E086E091E067DE06C010922F
:1006800028011092210110922001CC2309F4A3C16A
:100690008091240181119FC18091290190912A01AB
:1006A000892B49F08091290190912A01019790931B
:1006B0002A01809329018091290190912A01892B97
:1006C00009F089C110923A0186C1809131018823D5
:1006D00069F0992309F48DC1CC2309F48AC11092E1
:1006E000310181E28A95F1F7000083C1992309F471
:1006F00062C080912501813009F05DC080912201A6
:10070000811157C080913A01883021F484E08093B0
:100710003A0113C080913A01833021F484E0809340
:100720003A010BC080913A018F5F80933A0180912A
:100730003A01853011F410923A0180913A018430E7
:1007400061F580912701882361F080912701843031
:1007500040F44091070160910801809109019FDEFA
:1007600013C080912701863078F08091270189306D
:1007700058F44091040160910501809106010FDE5B
:1007800021E22A95F1F7000010923A0181E080936E
:100790003101809323018093220110923001109245
:1007A0002F0181E28A95F1F70000809125018130C7
:1007B00011F410922201809131018111FCC0CC23EF
:1007C00009F46AC080912401813009F065C08091EC
:1007D0002301811161C080913A01813091F48091AF
:1007E000090190E0019668E170E003D5809309016A
:1007F0009091090181E09C3008F080E08093030132
:1008000043C080913A01823051F48091080190E018
:1008100001966CE370E0EDD48093080135C08091BF
:100820003A01833051F48091070190E001966CE326
:1008300070E0DFD48093070127C080913A018630B1
:1008400051F48091060190E0019664E670E0D1D405
:100850008093060119C080913A01873049F4809154
:1008600005016CE0BAD481E0890F809305010CC0CA
:1008700080913A01883041F4809104016FE1ADD458
:1008800081E0890F809304011092300110922F01B2
:1008900021E22A95F1F70000C1117CC080912F015F
:1008A0009091300101969093300180932F018091B7
:1008B0002F0190913001843F914008F473C08091E2
:1008C0001E0190911F01019690931F0180931E01BC
:1008D0008436910508F466C080913A01813091F424
:1008E0008091090190E0019668E170E082D48093E4
:1008F00009019091090181E09C3008F080E080932B
:10090000030143C080913A01823051F48091080183
:1009100090E001966CE370E06CD48093080135C0E0
:1009200080913A01833051F48091070190E0019663
:100930006CE370E05ED48093070127C080913A0198
:10094000863051F48091060190E0019664E670E0F3
:1009500050D48093060119C080913A01873049F440
:10096000809105016CE039D481E0890F8093050105
:100970000CC080913A01883041F4809104016FE10C
:100980002CD481E0890F8093040110921F011092F2
:100990001E0108C01092300110922F0110921F0109
:1009A00010921E01CC2391F080912401813029F412
:1009B0001092230102C0CC2339F080912F01909135
:1009C0003001843F914020F080E003C080E001C00E
:1009D00081E080930101D09325011093240180913F
:1009E0003A018093270105C0109239011092380115
:1009F000F7CDDF91CF911F9108951F920F920FB6FF
:100A00000F9211240F931F932F933F934F935F9354
:100A10006F937F938F939F93AF93BF93CF93DF9306
:100A2000EF93FF9380911C0190911D01019690938B
:100A30001D0180931C018A3F910550F090910001A7
:100A400081E089278093000110921D0110921C0102
:100A500080913701882391F0809135019091360182
:100A600001969093360180933501843F914030F098
:100A700010923701109236011092350180913401A5
:100A8000882389F0809132019091330101969093EF
:100A9000330180933201C29730F0109234011092EA
:100AA00033011092320180912D0190912E01892BFA
:100AB00049F080912D0190912E01019790932E0184
:100AC00080932D0180912B0190912C01892BB1F005
:100AD00080912B0190912C019C0121503109309380
:100AE0002C0120932B01843611F0843111F4CCDCDD
:100AF00005C0803511F0813009F4CDDC01DD809135
:100B00003A01853069F080913A01863049F0809150
:100B10003A01873029F080913A01883009F054C0B9
:100B2000809104011DEC819F912D1124969596953D
:100B30009695990F292F220F220F920F891B73DB95
:100B4000CCE3D1E0888380910401819F812D112421
:100B500086958695869567DB898380910501819FBF
:100B6000912D1124969596959695990F292F220FE0
:100B7000220F920F891B57DB8F7D8A83809105019D
:100B8000819F812D11248695869586954CDB8B83DC
:100B900080910601819F912D1124969596959695A9
:100BA000990F292F220F220F920F891B3CDB8F7D7B
:100BB0008C8380910601819F812D112486958695D5
:100BC000869531DB8D83A6C180910201882319F0BF
:100BD000D091090111C0809109018C3018F4D09195
:100BE00009010AC0809109018C3019F4D0910901E2
:100BF00003C0D0910901DC5080913A01882329F08B
:100C000080913A01843009F05AC080910701CDECFF
:100C10008C9F912D1124969596959695990F292F35
:100C2000220F220F920F891BFEDA0CE311E0F8016C
:100C30008083809107018C9F812D11248695869554
:100C40008695F1DAF8018183809108018C9F912DBE
:100C50001124969596959695990F292F220F220F7C
:100C6000920F891BE0DAF8018283809108018C9F42
:100C7000812D1124869586958695D5DAF801838392
:100C8000DC9FC12D1124C695C695C695CC0F8C2F1F
:100C9000880F880FC80F8D2F8C1BC5DAF80184834D
:100CA000DA3040F08DECD89F812D11248695869501
:100CB000869501C083E6B7DA809341012BC180910C
:100CC0003A01813009F05FC080910701CDEC8C9F23
:100CD000912D1124969596959695990F292F220F6F
:100CE000220F920F891B9FDA0CE311E0F801808339
:100CF000809107018C9F812D11248695869586957C
:100D000092DAF8018183809108018C9F912D112442
:100D1000969596959695990F292F220F220F920F4F
:100D2000891B81DAF8018283809108018C9F812DD3
:100D3000112486958695869576DAF80183838091CD
:100D400009018C9FC12D1124C695C695C695CC0F5F
:100D50009C2F990F990FC90F8C1B65DAF8018483BA
:100D6000809109018A3050F0809109019DEC899FA2
:100D7000812D112486958695869501C083E653DAE8
:100D800080934101C7C080913A01823009F05FC071
:100D900080910701CDEC8C9F912D1124969596950D
:100DA0009695990F292F220F220F920F891B3BDA5C
:100DB0000CE311E0F8018083809107018C9F812D65
:100DC00011248695869586952EDAF8018183809187
:100DD00008018C9F912D1124969596959695990FC3
:100DE000292F220F220F920F891B1DDAF80182830F
:100DF000809108018C9F812D11248695869586957A
:100E000012DAF8018383809109018C9FC12D11248E
:100E1000C695C695C695CC0F9C2F990F990FC90FF3
:100E20008C1B01DAF8018483809109018A3050F02B
:100E3000809109019DEC899F812D112486958695CD
:100E4000869501C083E6EFD98093410163C080910C
:100E50003A01833009F05EC080910701CDEC8C9F90
:100E6000912D1124969596959695990F292F220FDD
:100E7000220F920F891BD7D90CE311E0F801808370
:100E8000809107018C9F812D1124869586958695EA
:100E9000CAD9F8018183809108018C9F912D11247A
:100EA000969596959695990F292F220F220F920FBE
:100EB000891BB9D9F8018283809108018C9F812D0B
:100EC0001124869586958695AED9F8018383809105
:100ED00009018C9FC12D1124C695C695C695CC0FCE
:100EE0009C2F990F990FC90F8C1B9DD9F8018483F2
:100EF000809109018A3050F0809109019DEC899F11
:100F0000812D112486958695869501C083E68BD91F
:100F10008093410180910101882399F180913A01E8
:100F2000882379F180913A01843059F180913A0116
:100F3000853039F180910001811123C0E0913A019F
:100F4000F0E0EE0FFF1FE65FFE4F8081E0913A0177
:100F5000F0E0EE0FFF1FE65FFE4F9181891788F4E6
:100F60002FEFE82FF0E0E45CFE4F20838F5FE091ED
:100F70003A01F0E0EE0FFF1FE65FFE4F9181891707
:100F800080F380913A01882381F080913A01813089
:100F900061F080913A01823041F080913A018330D2
:100FA00021F080913A018430B1F480913A018111AD
:100FB00006C080913701882321F021EE03C021EE85
:100FC00001C02FEF90910301911102C08FE701C082
:100FD0008FEB822301C08FEF9091340191118F7DAF
:100FE00020912D0130912E01232B19F4909126018F
:100FF00091118E7F80934201FF91EF91DF91CF910C
:10100000BF91AF919F918F917F916F915F914F9120
:101010003F912F911F910F910F900FBE0F901F9036
:1010200018951F920F920FB60F9211245F936F9332
:101030007F938F939F93AF93BF93EF93FF938FEF24
:1010400085B98BB18C748BB988B18C7F88B9E091EC
:101050003B01F0E0E45CFE4F808185B980913A016C
:10106000853061F080913A01863041F080913A01FB
:10107000873021F080913A01883069F480913B01FA
:10108000823041F080913B01843021F080913B011E
:10109000811101C02D98E0913B018E2F90E08730A7
:1010A000910588F4FC01E258FF4F0994589A0BC04F
:1010B000599A09C0409A07C0419A05C05C9A03C07A
:1010C0005D9A01C05F9A80913B0190E0019667E0D4
:1010D00070E08FD080933B01FF91EF91BF91AF9172
:1010E0009F918F917F916F915F910F900FBE0F90A5
:1010F0001F9018958FEF84B983E387B98BEF8AB976
:1011000018B81BB882E08093B0008093B1009CE7D0
:101110009093B30080937000109280009AE09093B7
:1011200081002CE730E03093890020938800809381
:101130006F008093690081E08DBBADD902D882EA4F
:1011400012D882E048D843D883EA0DD880E05BD833
:10115000C82F3DD8CC235CF481E08093260140E089
:1011600060E080E09CD941E061E089E118D93AD99A
:101170008378803841F495D884E190E090932C01F5
:1011800080932B0116C0833839F484E690E0909365
:101190002C0180932B010DC082EAE5D78DE01BD88E
:1011A00083E819D814D884E190E090932C018093BF
:1011B0002B0189EF90E00197F1F700C0000054D9AE
:1011C0007894809144018823E1F380913A01811160
:1011D000F8CF1092440148D9F4CF991B79E004C0AC
:1011E000991F961708F0961B881F7A95C9F7809566
:1011F000089597FB072E16F4009406D077FD08D0CB
:101200000BD007FC05D03EF4909581959F4F089533
:10121000709561957F4F0895AA1BBB1B51E107C0D4
:10122000AA1FBB1FA617B70710F0A61BB70B881F76
:10123000991F5A95A9F780959095BC01CD01089505
:04124000F894FFCF50
:101244000101010109061924220C00060406020406
:0C1254000002000600060406020400026E
:00000001FF
